S00F0000557365724170702E7372656355
S113A0000070002091A50000F9A50000F9A500004A
S113A010F9A50000F9A50000F9A500000000000062
S113A020000000000000000000000000F9A500008E
S113A030F9A5000000000000F9A50000F9A5000042
S113A040F9A50000F9A50000F9A50000F9A5000094
S113A050F9A50000F9A50000F9A50000F9A5000084
S113A060F9A50000F9A50000F9A50000F9A5000074
S113A070F9A50000F9A50000F9A50000F9A5000064
S113A3F0F9A50000F9A50000F9A50000FFFFFFFF83
S113A400FFFFFFFFFFFFFFFFFFFFFFFFFE7FFFFFD9
S113A4100348044B834202D0034B03B118477047EF
S113A420548DFF1F548DFF1F00000000054806498E
S113A4300B1AD90F01EBA301491002D0034B03B14E
S113A44018477047548DFF1F548DFF1F00000000F4
S113A45010B5064C237843B9FFF7DAFF044B13B168
S113A4600448AFF300800123237010BD00000020D6
S113A4700000000044B5000008B5044B1BB10449BA
S113A4800448AFF30080BDE80840CFE700000000B7
S113A4900400002044B50000002A01D002F5807AAF
S113A4A0704700BF162031A1ABBE30484168002977
S113A4B001D0364A11600168002901D13249016096
S113A4C08168C2682A4B002900D00B469D46FFF7DD
S113A4D0E3FF00218B460F462648274A121A00F054
S113A4E0CFF900F0BFFC15202649ABBE2549096809
S113A4F0002001B40B780131002B15D0202BF9D0AA
S113A500222B01D0272B01D11A0001E0202201398E
S113A51002B401300B780131002B05D09A42F9D1F5
S113A52000224B1E1A70E5E76946020092006A4455
S113A5306B469A4206D9043A14681D6815601C607B
S113A5400433F6E76C460725AC43A54604000D002A
S113A5500A48002802D00A4800F00AFA00F06CF910
S113A5602000290000F050F900F056F90084FF1F84
S113A5700070002000000020FC00002071A90000F1
S113A58049A900001085FF1F0001002000050020DC
S113A59072B64FF000014FF000024FF000034FF08D
S113A5A000044FF000054FF000064FF00007B846D6
S113A5B0B946BA46BB46BC460A490B4A521A013A46
S113A5C005DD0020042308601944043AFBDA074837
S113A5D08546074880470748804762B6FFF762FF11
S113A5E0FEE700000080FF1F0070002000700020C4
S113A5F035A700000DA60000FFF7FEBF034613F8C1
S113A600012B002AFBD1181A0138704780B48FB08F
S113A61000AF394B3B63394B3B62394B7B61394B60
S113A620FB62394BFB61394B3B61394BBB62394BA4
S113A630FB60394B7B62394BBB61394BBB6009E032
S113A6403B6A1A783B6B1A703B6B01333B633B6A82
S113A65001333B627A693B6A9A42F1D109E0FB69B2
S113A6601A78FB6A1A70FB6A0133FB62FB690133D7
S113A670FB613A69FB699A42F1D105E0BB6A0022A9
S113A6801A70BB6A0133BB62FA68BB6A9A42F5D19D
S113A69009E0BB691A787B6A1A70BB690133BB6134
S113A6A07B6A01337B62BA68BB699A42F1D10023A9
S113A6B0FB711C4A1C4B9A4216D000237B630AE0B0
S113A6C0194A7B6B52F8232016497B6B41F82320EF
S113A6D07B6B01337B63154B9B087A6B9A42EFD3F8
S113A6E0134B104A1A6002E0114B0F4A1A6000BF64
S113A6F03C37BD4680BC70470084FF1F70B5000026
S113A700C4BE0000548DFF1FC4BE0000C4BE0000C0
S113A71000000020FC00002000000020C4BE000057
S113A720C4BE00000080FF1F00A000000004000061
S113A73008ED00E080B400AF084B094A5A60074BAB
S113A7405B68064B42F220121A60044B4FF6FF720C
S113A7509A6000BFBD4680BC704700BF0020054022
S113A76020C528D980B400AF124BD3F82C31114A3C
S113A77043F08043C2F82C310E4BD3F830310D4AEC
S113A78043F08043C2F830310B4B40F203121A639A
S113A7900A4B4FF48072DA63094B5B69084A43F44D
S113A7A000435361064B4FF400425A6000BFBD465C
S113A7B080BC70470050064000B0044000C0044014
S113A7C0C0F00F4080B400AF034B4FF40042DA6096
S113A7D000BFBD4680BC7047C0F00F4080B582B05A
S113A7E000AFFFF7EFFF00237B6002E07B680133DB
S113A7F07B607B68034A9342F8D900BF00BF0837E7
S113A800BD4680BDDF93040080B500AFFFF7AAFF0B
S113A810FFF7E4FFFCE7000008B50021044600F060
S113A82041F8044B1868C36B03B19847204600F005
S113A83079FB00BF24B5000070B50D4D0D4C641BB1
S113A840A4100026A64209D10B4D0C4C00F07AFE50
S113A850641BA4100026A64205D170BD55F8043B24
S113A86098470136EEE755F8043B98470136F2E77E
S113A87064B5000064B5000064B500006CB5000068
S113A88002440346934200D1704703F8011BF9E7E1
S113A890024B13B1024800F06BB87047000000008F
S113A8A049A900002DE9F74F264B1B680193074681
S113A8B00E464FF0000A019BD3F8485155B16C681D
S113A8C004F1FF38013405EB84044FF00109B8F1B9
S113A8D0000F02DA03B0BDE8F08F3EB1D4F80021D6
S113A8E0B24203D008F1FF38043CF0E769682268FB
S113A8F0013941450CBFC5F80480C4F800A0002A02
S113A900F0D0D5F88811D5F804B009FA08FC1CEA8F
S113A910010F09D190476968019B5945D3F8482133
S113A920C9D19542DED0C6E7D5F88C01D4F88010A1
S113A9301CEA000F02D138469047ECE708469047DE
S113A940E9E700BF24B5000038B5074D074C641B88
S113A950A4101CB9BDE8384000F0FABD013C55F81C
S113A96024309847F5E700BF6CB5000070B50000CF
S113A970002301461A46184600F000B8F0B5174CFB
S113A9802568D5F848411CB905F5A674C5F84841B1
S113A99065681F2D1EDCB0B104EB85070228C7F8DB
S113A9A08820D4F888614FF0010202FA05F246EAE1
S113A9B00206C4F88861C7F8083102BFD4F88C31A4
S113A9C01343C4F88C316B1C0235636044F82510C2
S113A9D00020F0BD4FF0FF30FBE700BF24B50000BE
S113A9E00A4B10B50446186818B1836B0BB900F014
S113A9F0E7FA132C07D8064850F83420013202D065
S113AA0000EBC40010BD0020FCE700BF1885FF1F49
S113AA102C000020F8B5044600F0A2FA13260546DF
S113AA20002730463946ABBE06462E602046F8BDA8
S113AA30431C01D1FFF7EEBF704730B585B0CDE9B7
S113AA4001010392062401AD20462946ABBE04460B
S113AA502046FFF7EDFF05B030BD70B50E46154634
S113AA60FFF7BEFF044630B900F07AFA0923036009
S113AA704FF0FF3070BD00682A463146FFF7DDFF16
S113AA80431C1FBF6368281A1B186360F2E7F7B5FD
S113AA900C461646FFF7A4FF054640B900F060FADD
S113AAA0092303604FF0FF34204603B0F0BD022EAB
S113AAB003D900F055FA1623F3E7012E12D14368A7
S113AAC0E418F6D42B680A26CDE900346F463046E4
S113AAD03946ABBE06463046FFF7AAFF0028E1DB45
S113AAE06C60E1E7022EEDD1036800930C266F46FB
S113AAF030463946ABBE06463046FFF799FF431C45
S113AB00D0D00444DEE7FFF7C2BF30B585B0CDE94D
S113AB1001010392052401AD20462946ABBE04463B
S113AB202046FFF785FF05B030BD70B50E461546CB
S113AB30FFF756FF044630B900F012FA0923036008
S113AB404FF0FF3070BD00682A463146FFF7DDFF45
S113AB50031EF5DB6268E81A0244AB426260F1D17D
S113AB60BDE870400020FFF755BF37B502240190BF
S113AB7001AD20462946ABBE04462046FFF758FFE8
S113AB8003B030BD38B50546FFF72AFF044630B997
S113AB9000F0E6F9092303604FF0FF3038BD013DB2
S113ABA0012D09D8094B9A681B699A4204D14FF0C8
S113ABB0FF3303600020F1E72068FFF7D6FF002889
S113ABC0ECD14FF0FF332360E8E700BF2C000020F6
S113ABD00D4A116810B5034609B90C491160106893
S113ABE0694603448B4206D809490A4C0968A142C4
S113ABF008D08B4206D900F0B3F90C2303604FF060
S113AC00FF3010BD1360FCE71C0000200001002091
S113AC103889FF1FADDEFECA70B50C46FFF7E0FEB3
S113AC20054630B900F09CF9092303604FF0FF306A
S113AC3070BD636843F4005363604FF48063A3649E
S113AC400C2630462946ABBE05462846FFF7F0FEE3
S113AC50431C1CBF20610020EAE738B50D460446BA
S113AC60582200212846FFF70BFE2046002100F061
S113AC7011F8431C04460BD06B6843F401436B602A
S113AC802946FFF7C9FF05462046FFF77BFF2C4600
S113AC90204638BD2DE9F043DFF8A88097B0074679
S113ACA00E46002558F83540611C37D00135142D67
S113ACB0F8D100F055F9182303604FF0FF343DE05C
S113ACC0C6F3004440F20163B20748BF44F00204F3
S113ACD01E4218BF44F00404330748BF24F00404A0
S113ACE0384648BF44F008040097FFF787FCCDE9D5
S113ACF00140012420464946ABBE0446002C08DB33
S113AD0048F8354008EBC5080023C8F804302C4641
S113AD1014E02046FFF77EFE04460FE006F42063AD
S113AD20B3F5206FE946CBD149463846FFF795FF86
S113AD300130C5D000F014F911230360204617B088
S113AD40BDE8F0832C0000202DE9F74306460F46AA
S113AD502A4800211546FFF79DFF2A460446002194
S113AD603046FFF78DFD631C16D02046FFF738FEF2
S113AD704FF00C08814640464946ABBE80464046EB
S113AD80FFF756FE032802DDC31EAB4208DC204653
S113AD90FFF7F8FE4FF0FF34204603B0BDE8F08320
S113ADA004220DEB02012046FFF757FE0328EEDDD7
S113ADB09DF80430532BEAD19DF80530482BE6D199
S113ADC09DF80630462BE2D19DF80730422BDED1A8
S113ADD0012239462046FFF75AFE0028D7DB2A46CF
S113ADE031462046FFF739FE05462046FFF7CAFEE6
S113ADF02846FFF71DFE0446CEE700BF28B5000035
S113AE0037B50A4D0A4C0021012201A829602260AD
S113AE10FFF79AFF002807DD9DF8043003F00102D4
S113AE2003F002032A60236003B030BD3C89FF1F96
S113AE304089FF1F10B5044C2368002B01DAFFF78B
S113AE40DFFF206810BD00BF3C89FF1F10B5044C14
S113AE502368002B01DAFFF7D3FF206810BD00BF81
S113AE604089FF1F2DE9F04F85B0DFF8A490CDF89D
S113AE70049003230024039301AF02940125284680
S113AE803946ABBE0546DFF88C802346224CC8F811
S113AE9000504FF0FF3244F833200133142BFAD121
S113AEA0FFF7D4FF1D4DD0B14FF0030A0423CDF8B2
S113AEB004900126CDF80CA0029330463946ABBE6F
S113AEC08346174BCDF80490C3F800B00823CDF89F
S113AED00CA0029330463946ABBE06462E602B6862
S113AEE0013302BF0E4B1B682B600026D8F80030DC
S113AEF023606660FFF7AAFF30B1094B1B68C4E901
S113AF0002362B68C4E9043605B0BDE8F08F00BFF3
S113AF103EB50000240000202C000020200000206A
S113AF2028000020014608B5024A4FF0FF3000F027
S113AF3003F800BF2600020007B5CDE90021FFF7A2
S113AF4079FF002814BF20241824FFF773FF20B1D1
S113AF506D4620462946ABBE0446009DF9E7000035
S113AF60014B1868704700BF1885FF1F002310B5F8
S113AF700446C0E90033C0E9043383608181036679
S113AF80C2818361194608225830FFF779FC054BCA
S113AF902362054B6362054BA362054BE461E362E4
S113AFA010BD00BF69B000008BB00000C3B000004A
S113AFB0E7B00000014900F025B800BF35B100003A
S113AFC0826B10B50446D2B90D4BC3630323C0F89A
S113AFD0E43200F53B73C0F8E832C0F8E022042103
S113AFE04068FFF7C3FFA06801220921FFF7BEFFF5
S113AFF0E06802221221FFF7B9FF0123A36310BD09
S113B000B5AF00002DE9F8430646884600F53874CC
S113B0100027D4E90195B9F1010905D52468002C6C
S113B020F7D13846BDE8F883AB89012B07D9B5F9C8
S113B0300E30013303D029463046C04707436435F8
S113B040E9E770477047000038B5064D0023044611
S113B05008462B60FFF7BCFD431C02D12B6803B1EB
S113B060236038BDF800002010B50C46B1F90E106D
S113B07000F046FA0028ABBF236DA3891B1823F404
S113B0808053ACBF2365A38110BD2DE9F0411F4659
S113B0908B89DB0505460C46164605D5B1F90E101D
S113B0A00223002200F01AFAA389B4F90E1023F443
S113B0B08053A38132463B462846BDE8F04100F068
S113B0C017B810B50C46B1F90E1000F007FA431C7E
S113B0D0A38915BF206523F4805343F48053A381CF
S113B0E018BFA38110BDB1F90E1000F013B8000011
S113B0F038B5074D04460846114600222A601A4610
S113B100FFF713FD431C02D12B6803B1236038BD44
S113B110F800002038B5064D0023044608462B608D
S113B120FFF730FD431C02D12B6803B1236038BD07
S113B130F800002070B505460C4611B900263046CB
S113B14070BD18B1836B0BB9FFF73AFFB4F90C303B
S113B150002BF3D02146284600F026F8E36A064681
S113B16033B1E169284698470028B8BF4FF0FF364D
S113B170A3891B0603D52169284600F0EFF8216B4B
S113B18041B104F14003994202D0284600F0E6F8A8
S113B19000232363616C21B1284600F0DFF800230B
S113B1A063640023A381CAE7F8B58B89B1F90C2045
S113B1B0054618070C465ED44B6842F40062002B27
S113B1C08A8104DCCB6B002B01DC0020F8BDA66A6D
S113B1D0002EFAD0002312F480522F682B6036D050
S113B1E0206DA3895A0705D56368C01A236B0BB178
S113B1F0E36BC01A00230246A66AE1692846B047F9
S113B200431CA38906D129681D2930D82A4ACA407B
S113B210D6072CD523F400631BB200226260D90444
S113B2202269A381226004D5421C01D12B6803B991
S113B2302065216B2F600029C7D004F14003994297
S113B24002D0284600F08AF800202063BEE7E169B6
S113B25001232846B047411CC3D12B68002BC0D022
S113B2601D2B01D0162B01D12F60AEE7A38943F02B
S113B2704003A381AAE70F69002FA6D09B070E689D
S113B28008BF4B690F6018BF0023F61B8B60002EAC
S113B2909BDDE169D4F824C033463A462846E047AA
S113B2A0002806DCA38943F04003A3814FF0FF305C
S113B2B08CE70744361AEAE701004020F8B5244F2A
S113B2C00C460646FFF7BDFEBB685D68C4F57E64A8
S113B2D025F003050F342C4424F47F6424F00F0478
S113B2E0A4F58054B4F5805F04DA3046FFF7AAFE73
S113B2F00020F8BD00213046FFF7A6FEBB682B44B2
S113B3009842F2D161423046FFF79EFE013010D1DF
S113B31000213046FFF798FEBA68831A0F2BE4DD4C
S113B3200C490968401A0C4943F001030860536052
S113B330DBE7BB68084A2D1B45F001055D60136817
S113B34030461B1B1360FFF77DFE0120D1E700BFD1
S113B3504489FF1F4C8DFF1FCC000020F8B5054623
S113B3600F46002900F0B180FFF76BFE57F8042C5C
S113B370564822F00104A7F1080303EB040C81688A
S113B380DCF80460614526F0030602F001021BD1DB
S113B39034443AB957F8082C9B1A1444D3E90212DE
S113B3A0CA60916044F001025A608360484B1B6894
S113B3B0A34204D8474B28461968FFF77FFF284665
S113B3C0BDE8F840FFF73EBECCF80460002A38D14F
S113B3D057F8081C5B1A0C44996800F10807B94235
S113B3E031D0DF68CF60B9600CEB06014968C9074A
S113B3F00BD4DCF8081034443ABB374EB14224D1A4
S113B400C0E90433C3E90211012244F00101596087
S113B4101C51002AD3D1B4F5007F1BD26109E20884
S113B42001248C40416801320C43446000EBC201AA
S113B43050F832400839C3E9024140F83230E36041
S113B440BDE70022D0E70122CEE7DCF80C60CE6035
S113B450B160DAE7B4F5206F4FEA542214D2A2099E
S113B4603832511C00EBC20650F831108E4225D1FF
S113B4700124921004FA02F2446822434260C3E9B0
S113B4800216B360CB609AE7142A01D85B32E8E76E
S113B490542A02D8220B6E32E3E7B2F5AA7F02D80F
S113B4A0E20B7732DDE740F254518A429ABFA20C94
S113B4B07C327E22D5E789688E4204D04A6822F025
S113B4C00302A242F7D8CE68D9E7F8BD4489FF1F2A
S113B4D0508DFF1FF40000204C89FF1F38B5074D25
S113B4E004460846114600222A601A46FFF70BFB61
S113B4F0431C02D12B6803B1236038BDF80000203F
S113B50038B5074D04460846114600222A601A46FB
S113B510FFF7A3FA431C02D12B6803B1236038BDA3
S113B520F80000202085FF1F3A73656D69686F730A
S113B53074696E672D6665617475726573003A741B
S113B54074000000F8B500BFF8BC08BC9E46704704
S10FB550F8B500BFF8BC08BC9E4670476C
S10BB55C3CEFFF7F0100000039
S10BB56491A8000079A4000085
S107B56C51A40000E2
S113B57000000000000000000000000000000000C7
S113B58000000000000000000000000000000000B7
S113B59000000000000000000000000000000000A7
S113B5A00000000000000000000000000000000097
S113B5B00000000000000000000000000000000087
S113B5C00000000000000000000000000000000077
S113B5D00000000000000000000000000000000067
S113B5E00000000000000000000000000000000057
S113B5F00000000000000000000000000000000047
S113B6000000000000000000000000000000000036
S113B6100000000000000000000000000000000026
S113B6200000000000000000000000000000000016
S113B6300000000000000000000000000000000006
S113B64000000000000000000000000000000000F6
S113B65000000000000000000000000000000000E6
S113B66000000000000000000000000000000000D6
S113B67000000000000000000000000000000000C6
S113B6801084FF1FFF0000002085FF1F0000000042
S113B690000000000C88FF1F7088FF1FD488FF1F64
S113B6A00000000000000000000000000000000096
S113B6B00000000000000000000000000000000086
S113B6C00000000000000000000000000000000076
S113B6D00000000000000000000000000000000066
S113B6E00000000000000000000000000000000056
S113B6F00000000000000000000000000000000046
S113B7000000000000000000000000000000000035
S113B7100000000000000000000000000000000025
S113B7200000000000000000000000000000000015
S113B7300000000000000000010000000000000004
S113B7400E33CDAB34126DE6ECDE05000B000000C9
S113B75000000000000000000000000000000000E5
S113B76000000000000000000000000000000000D5
S113B77000000000000000000000000000000000C5
S113B78000000000000000000000000000000000B5
S113BAA00000000000000000ADDEFECAFFFFFFFF43
S113BAB0FFFFFFFF00000000000000004489FF1F9B
S113BAC04489FF1F4C89FF1F4C89FF1F5489FF1FA6
S113BAD05489FF1F5C89FF1F5C89FF1F6489FF1F56
S113BAE06489FF1F6C89FF1F6C89FF1F7489FF1F06
S113BAF07489FF1F7C89FF1F7C89FF1F8489FF1FB6
S113BB008489FF1F8C89FF1F8C89FF1F9489FF1F65
S113BB109489FF1F9C89FF1F9C89FF1FA489FF1F15
S113BB20A489FF1FAC89FF1FAC89FF1FB489FF1FC5
S113BB30B489FF1FBC89FF1FBC89FF1FC489FF1F75
S113BB40C489FF1FCC89FF1FCC89FF1FD489FF1F25
S113BB50D489FF1FDC89FF1FDC89FF1FE489FF1FD5
S113BB60E489FF1FEC89FF1FEC89FF1FF489FF1F85
S113BB70F489FF1FFC89FF1FFC89FF1F048AFF1F34
S113BB80048AFF1F0C8AFF1F0C8AFF1F148AFF1FE1
S113BB90148AFF1F1C8AFF1F1C8AFF1F248AFF1F91
S113BBA0248AFF1F2C8AFF1F2C8AFF1F348AFF1F41
S113BBB0348AFF1F3C8AFF1F3C8AFF1F448AFF1FF1
S113BBC0448AFF1F4C8AFF1F4C8AFF1F548AFF1FA1
S113BBD0548AFF1F5C8AFF1F5C8AFF1F648AFF1F51
S113BBE0648AFF1F6C8AFF1F6C8AFF1F748AFF1F01
S113BBF0748AFF1F7C8AFF1F7C8AFF1F848AFF1FB1
S113BC00848AFF1F8C8AFF1F8C8AFF1F948AFF1F60
S113BC10948AFF1F9C8AFF1F9C8AFF1FA48AFF1F10
S113BC20A48AFF1FAC8AFF1FAC8AFF1FB48AFF1FC0
S113BC30B48AFF1FBC8AFF1FBC8AFF1FC48AFF1F70
S113BC40C48AFF1FCC8AFF1FCC8AFF1FD48AFF1F20
S113BC50D48AFF1FDC8AFF1FDC8AFF1FE48AFF1FD0
S113BC60E48AFF1FEC8AFF1FEC8AFF1FF48AFF1F80
S113BC70F48AFF1FFC8AFF1FFC8AFF1F048BFF1F2F
S113BC80048BFF1F0C8BFF1F0C8BFF1F148BFF1FDC
S113BC90148BFF1F1C8BFF1F1C8BFF1F248BFF1F8C
S113BCA0248BFF1F2C8BFF1F2C8BFF1F348BFF1F3C
S113BCB0348BFF1F3C8BFF1F3C8BFF1F448BFF1FEC
S113BCC0448BFF1F4C8BFF1F4C8BFF1F548BFF1F9C
S113BCD0548BFF1F5C8BFF1F5C8BFF1F648BFF1F4C
S113BCE0648BFF1F6C8BFF1F6C8BFF1F748BFF1FFC
S113BCF0748BFF1F7C8BFF1F7C8BFF1F848BFF1FAC
S113BD00848BFF1F8C8BFF1F8C8BFF1F948BFF1F5B
S113BD10948BFF1F9C8BFF1F9C8BFF1FA48BFF1F0B
S113BD20A48BFF1FAC8BFF1FAC8BFF1FB48BFF1FBB
S113BD30B48BFF1FBC8BFF1FBC8BFF1FC48BFF1F6B
S113BD40C48BFF1FCC8BFF1FCC8BFF1FD48BFF1F1B
S113BD50D48BFF1FDC8BFF1FDC8BFF1FE48BFF1FCB
S113BD60E48BFF1FEC8BFF1FEC8BFF1FF48BFF1F7B
S113BD70F48BFF1FFC8BFF1FFC8BFF1F048CFF1F2A
S113BD80048CFF1F0C8CFF1F0C8CFF1F148CFF1FD7
S113BD90148CFF1F1C8CFF1F1C8CFF1F248CFF1F87
S113BDA0248CFF1F2C8CFF1F2C8CFF1F348CFF1F37
S113BDB0348CFF1F3C8CFF1F3C8CFF1F448CFF1FE7
S113BDC0448CFF1F4C8CFF1F4C8CFF1F548CFF1F97
S113BDD0548CFF1F5C8CFF1F5C8CFF1F648CFF1F47
S113BDE0648CFF1F6C8CFF1F6C8CFF1F748CFF1FF7
S113BDF0748CFF1F7C8CFF1F7C8CFF1F848CFF1FA7
S113BE00848CFF1F8C8CFF1F8C8CFF1F948CFF1F56
S113BE10948CFF1F9C8CFF1F9C8CFF1FA48CFF1F06
S113BE20A48CFF1FAC8CFF1FAC8CFF1FB48CFF1FB6
S113BE30B48CFF1FBC8CFF1FBC8CFF1FC48CFF1F66
S113BE40C48CFF1FCC8CFF1FCC8CFF1FD48CFF1F16
S113BE50D48CFF1FDC8CFF1FDC8CFF1FE48CFF1FC6
S113BE60E48CFF1FEC8CFF1FEC8CFF1FF48CFF1F76
S113BE70F48CFF1FFC8CFF1FFC8CFF1F048DFF1F25
S113BE80048DFF1F0C8DFF1F0C8DFF1F148DFF1FD2
S113BE90148DFF1F1C8DFF1F1C8DFF1F248DFF1F82
S113BEA0248DFF1F2C8DFF1F2C8DFF1F348DFF1F32
S113BEB0348DFF1F3C8DFF1F3C8DFF1FFFFFFFFFD5
S107BEC00000020078
S903A591C6
